:020000040800F2
:1000000000800120611100085911000859110008F1
:10001000591100085911000859110008000000008A
:10002000000000000000000000000000591100085E
:1000300059110008000000005911000819110008AA
:1000400059110008591100085911000859110008E8
:1000500059110008591100082D1100085911000804
:1000600059110008591100085911000859110008C8
:1000700059110008591100085911000859110008B8
:1000800059110008591100085911000859110008A8
:100090005911000859110008591100085911000898
:1000A0005911000859110008591100085911000888
:1000B0005911000859110008591100085911000878
:1000C0005911000859110008591100085911000868
:1000D0005911000859110008591100085911000858
:1000E0005911000859110008591100085911000848
:1000F0005911000859110008591100085911000838
:100100005911000859110008591100085911000827
:100110005911000859110008E1100008FD100008ED
:100120005911000859110008591100085911000807
:1001300059110008591100085911000859110008F7
:1001400059110008591100085911000859110008E7
:1001500059110008591100085911000859110008D7
:1001600059110008591100085911000859110008C7
:100170005911000859110008591100080000000029
:08018000591100085911000893
:1001880010B5054C237833B9044B13B10448AFF3C9
:1001980000800123237010BD000000200000000033
:1001A800BC12000808B5034B1BB103490348AFF361
:1001B800008008BD0000000004000020BC120008F8
:1001C80080B483B000AF786039607B683A689A6120
:1001D80000BF0C37BD465DF8047B704780B483B020
:1001E80000AF786039607B683A689A6200BF0C3764
:1001F800BD465DF8047B704780B483B000AF78607B
:100208007B681B6843F001027B681A6000BF0C37EB
:10021800BD465DF8047B704780B483B000AF78605A
:1002280039607B683A685A6200BF0C37BD465DF892
:10023800047B704780B483B000AF786039607B6816
:100248003A68DA6200BF0C37BD465DF8047B704738
:1002580080B582B000AF78607B685B68002B2CD0DB
:100268007B681B78002B10D07B6800221A70022153
:100278001448FFF7B3FF96211348FFF7DBFF7B68AD
:100288005B685A1E7B685A600CE07B6801221A7012
:1002980002210C48FFF794FF7B689B6819460A48BF
:1002A800FFF7C8FF7B685B68002B06D00021064873
:1002B800FFF7B2FF0448FFF79FFF00BF0837BD46AE
:1002C80080BD00BF000800480010004080B582B023
:1002D80000AF786039607B683A685A607B6864224E
:1002E8009A607868FFF7B4FF00BF0837BD4680BD45
:1002F80080B582B000AF786039607B683A685A6030
:100308007B684FF47A729A607868FFF7A1FF00BFA4
:100318000837BD4680BD00BF80B483B000AF7860A9
:1003280039607B683A689A6100BF0C37BD465DF852
:10033800047B704780B483B000AF786039607B6815
:100348003A689A6200BF0C37BD465DF8047B704777
:1003580080B582B000AF7860786800F0DFF9FF21DF
:10036800786800F067F87B6800225A6000BF083799
:10037800BD4680BD80B582B000AF7860786800F077
:10038800CDF97B685B68591C0D4BA3FB01235A0808
:1003980013465B001344CA1A7B685A607B685B6823
:1003A8001946786800F046F87B685B687A68D35C21
:1003B8001946786800F080F800BF0837BD4680BD50
:1003C800ABAAAAAA80B485B000AF786039600023D0
:1003D800FB60FB68022B25DC3B68002B08D1FB681F
:1003E800002B05D07A68FB681344FF221A7015E0C9
:1003F80039680F4BA3FB0123DA0813469B0013440B
:100408005B00CA1AD1B27A68FB6813440A461A70AC
:100418003B68074AA2FB0323DB083B60FB68013308
:10042800FB60D6E700BF1437BD465DF8047B704714
:10043800CDCCCCCC80B582B000AF786039603B6859
:10044800012B1ED0012B12D3022B24D0FF2B00D05E
:100458002AE04FF400711648FFF75EFF04211548A3
:10046800FFF75AFF10211248FFF756FF1CE0102132
:100478000F48FFF751FF4FF400710D48FFF75AFF7F
:1004880012E04FF400710A48FFF746FF04210948BB
:10049800FFF750FF08E004210648FFF73DFF102151
:1004A8000348FFF747FF00BF00BF0837BD4680BDC0
:1004B800000800480004004880B582B000AF7860AA
:1004C8000B46FB70786800F029F9FB78052B00F0E3
:1004D8009480052B0DDC022B46D0022B04DC002B6C
:1004E80018D0012B35D011E1032B57D0042B6ED037
:1004F8000CE1082B00F0C780082B06DC062B00F067
:100508009580072B00F0B08000E1092B00F0DF8018
:10051800FF2BFBE001217F48FFF70CFF4FF4007130
:100528004FF09040FFF706FF80217B48FFF702FF5E
:100538004FF400617748FFF7FDFE4FF4005175480E
:10054800FFF7F8FE4FF400614FF09040FFF7F2FE1E
:10055800DCE04FF400714FF09040FFF7EBFE802194
:100568006D48FFF7E7FED1E001216A48FFF7E2FE98
:100578004FF400714FF09040FFF7DCFE4FF400613C
:100588006448FFF7D7FE4FF400516248FFF7D2FEE8
:100598004FF400415F48FFF7CDFEB7E001215D4809
:1005A800FFF7C8FE4FF400714FF09040FFF7C2FE0E
:1005B80080215948FFF7BEFE4FF400615548FFF708
:1005C800B9FE4FF400415348FFF7B4FE9EE04FF4E4
:1005D80000714FF09040FFF7ADFE80214E48FFF7C5
:1005E800A9FE4FF400614FF09040FFF7A3FE4FF4CF
:1005F80000414848FFF79EFE88E001214548FFF783
:1006080099FE80214448FFF795FE4FF40061414868
:10061800FFF790FE4FF400614FF09040FFF78AFE1D
:100628004FF400413B48FFF785FE6FE00121394850
:10063800FFF780FE80213848FFF77CFE4FF4006109
:100648003448FFF777FE4FF400513248FFF772FE47
:100658004FF400614FF09040FFF76CFE4FF40041FB
:100668002C48FFF767FE51E001212A48FFF762FE98
:100678004FF400714FF09040FFF75CFE8021264850
:10068800FFF758FE42E001212248FFF753FE4FF4DE
:1006980000714FF09040FFF74DFE80211E48FFF794
:1006A80049FE4FF400611B48FFF744FE4FF4005128
:1006B8001848FFF73FFE4FF400614FF09040FFF7F6
:1006C80039FE4FF400411348FFF734FE1EE00121C4
:1006D8001048FFF72FFE4FF400714FF09040FFF7DE
:1006E80029FE80210C48FFF725FE4FF400610948D8
:1006F800FFF720FE4FF400614FF09040FFF71AFE1D
:100708004FF400410348FFF715FE00BF00BF08374C
:10071800BD4680BD000400480008004880B582B08E
:1007280000AF786001211348FFF7F6FD4FF4007120
:100738004FF09040FFF7F0FD80210F48FFF7ECFDE8
:100748004FF400610B48FFF7E7FD4FF400510948EB
:10075800FFF7E2FD4FF400614FF09040FFF7DCFD3A
:100768004FF400410348FFF7D7FD00BF0837BD46E7
:1007780080BD00BF000400480008004880B483B072
:1007880000AF786000BF0C37BD465DF8047B70474A
:1007980080B582B000AF78607B681B681946214835
:1007A800FFF710FE7B681B683C2B19D03C2B04D844
:1007B800002B1FD01E2B18D027E0782B06D042F232
:1007C800107293421FD05A2B05D01EE00121164803
:1007D800FFF77CFD19E002211348FFF777FD14E0CD
:1007E80003211148FFF772FD0FE004210E48FFF7BF
:1007F8006DFD0AE001210C48FFF77AFD7B6842F2A3
:1008080010721A600AE000F031FD7B681B68002B4B
:1008180004D07B681B685A1E7B681A600837BD467F
:1008280080BD00BF1C0000202400002080B483B0DD
:1008380000AF78607B6878221A6000BF0C37BD462D
:100848005DF8047B704700BF80B489B000AFF860E2
:10085800B9607A60FB681A68BB68FB61FB6993FA48
:10086800A3F33B613B69B3FA83F35B00032101FA0D
:1008780003F3DB431A40BB68BB61BB6993FAA3F37C
:100888007B617B69B3FA83F35B00796801FA03F350
:100898001A43FB681A6000BF2437BD465DF8047B25
:1008A800704700BF80B485B000AFF860B9607A6067
:1008B800FB685A68BB68DB431A40BB68796801FB70
:1008C80003F31A43FB685A6000BF1437BD465DF84E
:1008D800047B704780B489B000AFF860B9607A6073
:1008E800FB689A68BB68FB61FB6993FAA3F33B61F9
:1008F8003B69B3FA83F35B00032101FA03F3DB439B
:100908001A40BB68BB61BB6993FAA3F37B617B693F
:10091800B3FA83F35B00796801FA03F31A43FB68BF
:100928009A6000BF2437BD465DF8047B704700BF5E
:1009380080B489B000AFF860B9607A60FB68DA68A3
:10094800BB68FB61FB6993FAA3F33B613B69B3FAAC
:1009580083F35B00032101FA03F3DB431A40BB680E
:10096800BB61BB6993FAA3F37B617B69B3FA83F339
:100978005B00796801FA03F31A43FB68DA6000BF89
:100988002437BD465DF8047B704700BF80B489B04A
:1009980000AFF860B9607A60FB681A6ABB68FB61EF
:1009A800FB6993FAA3F33B613B69B3FA83F39B00BA
:1009B8000F2101FA03F3DB431A40BB68BB61BB6933
:1009C80093FAA3F37B617B69B3FA83F39B0079689D
:1009D80001FA03F31A43FB681A6200BF2437BD46C5
:1009E8005DF8047B704700BF80B489B000AFF86041
:1009F800B9607A60FB685A6ABB681B0AFB61FB69CD
:100A080093FAA3F33B613B69B3FA83F39B000F218D
:100A180001FA03F3DB431A40BB681B0ABB61BB69DD
:100A280093FAA3F37B617B69B3FA83F39B0079683C
:100A380001FA03F31A43FB685A6200BF2437BD4624
:100A48005DF8047B704700BF80B588B000AF786060
:100A580039600023FB610023BB613B681B683B6175
:100A68003B6993FAA3F3FB60FB68B3FA83F3FB617A
:100A780048E03B681A680121FB6901FA03F3134057
:100A8800BB61BB69002B3AD03B685B681A46B96901
:100A98007868FFF7D9FE3B685B68012B03D03B6899
:100AA8005B68022B06D13B689B681A46B96978686F
:100AB800FFF710FF3B681B691A46B9697868FFF7AA
:100AC80037FF3B685B68022B19D1BB697B617B6987
:100AD80093FAA3F3BB60BB68B3FA83F3072B07D879
:100AE8003B685B691A46B9697868FFF74FFF06E00B
:100AF8003B685B691A46B9697868FFF775FFFB6957
:100B08000133FB613B681A68FB6922FA03F3002B87
:100B1800AFD13B685B68012B03D03B685B68022B55
:100B280007D13B6819683B68DB681A467868FFF7A5
:100B3800B9FE012318462037BD4680BD80B483B076
:100B480000AF0346FB71094997F907305B09FA7949
:100B580002F01F02012000FA02F241F8232000BF30
:100B68000C37BD465DF8047B704700BF00E100E02C
:100B780080B483B000AF03463960FB7197F9073042
:100B8800002B0BDA0D49FB7903F00F03043B3A689D
:100B9800D2B21201D2B20B441A7609E0084997F989
:100BA80007303A68D2B21201D2B20B4483F800235C
:100BB80000BF0C37BD465DF8047B704700ED00E0D0
:100BC80000E100E080B582B000AF78607B68013B4F
:100BD800B3F1807F01D301230FE00A4A7B68013B10
:100BE80053600F214FF0FF30FFF7C2FF054B002283
:100BF8009A60044B07221A60002318460837BD463E
:100C080080BD00BF10E000E080B485B000AF786020
:100C18000849084BDA6C7B681343CB64054BDA6CE4
:100C28007B681340FB60FB6800BF1437BD465DF866
:100C3800047B70470010024080B485B000AF786034
:100C48000849084B9A6D7B6813438B65054B9A6D71
:100C58007B681340FB60FB6800BF1437BD465DF836
:100C6800047B70470010024080B485B000AF786004
:100C78000849084B1A6E7B6813430B66054B1A6EBE
:100C88007B681340FB60FB6800BF1437BD465DF806
:100C9800047B70470010024080B483B000AF7860D6
:100CA8000549054B1A687B6813430B6000BF0C3776
:100CB800BD465DF8047B70470004014080B483B0F2
:100CC80000AF78600549054B9A687B6813438B60D1
:100CD80000BF0C37BD465DF8047B70470004014037
:100CE80080B483B000AF78600549054BDA687B684B
:100CF8001343CB6000BF0C37BD465DF8047B7047DB
:100D08000004014080B483B000AF7860044A7B6877
:100D1800536100BF0C37BD465DF8047B704700BFC8
:100D28000004014080B483B000AF78607B681B6822
:100D380043F001027B681A6000BF0C37BD465DF8BE
:100D4800047B704780B483B000AF786039607B68FB
:100D58001B6823F008023B681A437B681A6000BFCF
:100D68000C37BD465DF8047B704700BF80B483B084
:100D780000AF786039607B683A689A6200BF0C37C8
:100D8800BD465DF8047B704780B483B000AF7860DF
:100D980039607B683A68DA6200BF0C37BD465DF897
:100DA800047B704780B483B000AF78607B68DB68F1
:100DB80043F001027B68DA6000BF0C37BD465DF87E
:100DC800047B704780B483B000AF78607B685B6950
:100DD80043F001027B685A6100BF0C37BD465DF8DD
:100DE800047B704780B400AF174A174BD3F888309C
:100DF80043F47003C2F88830144A144B1B6843F05C
:100E080001031360114B00229A60104A0F4B1B68B4
:100E180023F0A85323F4102313600C4B4FF4805293
:100E2800DA600A4A094B1B6823F480231360074BD6
:100E380000229A61044B4FF000629A6000BFBD46E1
:100E48005DF8047B704700BF00ED00E00010024031
:100E580080B500AF4FF08050FFF7EEFE0120FFF79E
:100E680003FF0120FFF7D0FE0220FFF7CDFE04208C
:100E7800FFF7CAFE0820FFF7C7FE8020FFF7C4FE71
:100E88001020FFF7D9FE2020FFF7D6FE00BF80BD57
:100E980080B586B000AF03237B6000233B6101234C
:100EA800BB604FF6FF733B603B4619464048FFF76F
:100EB800CBFD3B4619463F48FFF7C6FD3B46194662
:100EC8003D48FFF7C1FD3B4619463C48FFF7BCFDCE
:100ED80049F6FF733B603B4619464FF09040FFF7D9
:100EE800B3FD01237B600023FB6001233B603B468D
:100EF80019462F48FFF7A8FD4FF400733B603B46A7
:100F080019464FF09040FFF79FFD80233B603B461A
:100F180019462848FFF798FD4FF400633B603B46AD
:100F280019462348FFF790FD4FF400533B603B46BA
:100F380019461F48FFF788FD4FF400633B603B46A6
:100F480019464FF09040FFF77FFD4FF400433B6098
:100F58003B4619461648FFF777FD4FF400733B6090
:100F68003B4619461348FFF76FFD04233B603B4699
:100F780019460F48FFF768FD10233B603B461946AA
:100F88000C48FFF761FD02233B603B4619460948C0
:100F9800FFF75AFD00237B6001233B603B4619465F
:100FA8004FF09040FFF750FD00BF1837BD4680BD99
:100FB8000004004800080048000C0048001C0048D5
:100FC80080B500AF0E48FFF7FDFD4FF47A610D487C
:100FD800FFF7CCFE01210B48FFF7B4FE0948FFF7E5
:100FE800F1FE00210848FFF7ADFE46F62A01064843
:100FF800FFF7CAFE0448FFF795FE00BF80BD00BF9B
:1010080000093D00001000400014004080B500AF0A
:101018000E48FFF7C7FE3620FFF790FD0C48FFF794
:10102800C1FE3720FFF78AFD0120FFF747FE0120A8
:10103800FFF756FE0120FFF765FE0120FFF72CFEA3
:101048000620FFF77BFD00BF80BD00BF00100040F9
:101058000014004080B500AFFFF7C4FEFFF7F8FEAC
:10106800FFF716FFFFF7ACFFFFF7D0FF00BF80BD0B
:1010780080B483B000AF7860044A7B68536100BFD6
:101088000C37BD465DF8047B704700BF0004014083
:1010980080B483B000AF786039607B681A693B68B8
:1010A8001A403B689A420CBF01230023DBB2184662
:1010B8000C37BD465DF8047B704700BF80B483B031
:1010C80000AF78607B686FF001021A6100BF0C37CF
:1010D800BD465DF8047B704780B500AF0348FFF755
:1010E800EDFF0348FFF7B4F800BF80BD00100040D3
:1010F8002400002080B500AF0348FFF7DFFF034856
:10110800FFF738F900BF80BD001400401C00002024
:1011180080B500AF0248FFF73BFB00BF80BD00BFB2
:101128003000002080B500AF0120FFF7A1FF0121AA
:101138004FF09040FFF7ACFF0346002B0CBF012394
:101148000023DAB2014B1A7000BF80BD34000020C2
:1011580080B400AFFEE700BF80B582B000AF154B8A
:10116800154A9A60DFF868D0144B7B60144B3B60DB
:101178003B68144A93420AD07B681A683B681A6035
:101188007B6804337B603B6804333B60F0E70E4BBD
:101198003B603B680D4A934206D03B6800221A60C8
:1011A8003B6804333B60F4E700F038F800BF0837C9
:1011B800BD4680BD00ED00E000000008DC1200081C
:1011C800000000200000002000000020380000205F
:1011D8000080012080B400AF054A054B1B6943F02D
:1011E8000403136100BFBD465DF8047B704700BF70
:1011F80000ED00E080B483B000AF78600649064B8C
:101208001B6823F007027B6813430B6000BF0C3791
:10121800BD465DF8047B70470070004080B500AFA4
:10122800FFF718FF0E48FFF793F80E48FFF7A6FAE6
:101238000C48FFF7FBFA0B48FFF7AAFA0A4B002203
:101248001A70094B1B78002B00D1FAE7064B1B7864
:10125800002B00D0FAE700F009F80023184680BDFB
:101268001C000020300000203400002080B500AFB2
:101278000F4A0F4B9B6823F4004393600C4A0C4BB6
:101288009B6943F01F039361094A094BDB6843F0EC
:101298000103D360064A064B9B6843F00103936041
:1012A8000420FFF7A7FFFFF795FF30BF00BF80BD01
:1012B80000700040F8B500BFF8BC08BC9E467047F7
:0C12C800F8B500BFF8BC08BC9E4670479B
:0412D400AD01000860
:0412D8008901000880
:040000050800018866
:00000001FF
